:020000040000FA
:100000002030840030304D28A0000308A100831266
:100010000B1C0B280B100C1C2528AE1D24282908AE
:100020008E002A088F00031D1828FF308F001E281D
:10003000050885181D2885141E288510AB0B24285B
:10004000AC0B2428AE1185100C100B1D4628A40BF8
:1000500045280730A400CE208F200721EF20AE1CBA
:100060003428A60B3428AE10A50B45280530A50072
:10007000AE184028A80803194028A80B40282E16BF
:10008000A70B44280030772015210B11210883008D
:1000900020080315211D031109002C2183120730AC
:1000A00099008316043081000C14850135309600C8
:1000B00083128500053090000C106920E8308B0019
:1000C0008C01B40803197B202E184E283418852083
:1000D00061280730A4000530A5003030A700A80132
:1000E000A601AD01013077202E10AE100800B4003B
:1000F000B501B00108008B121010373010218F208D
:10010000C22063002E14C2200800B508031D8D28EC
:100110000130B500393010218D28B0010800AE182B
:100120009F283530850483168504950083120508C1
:10013000FF3A3539B00403199F283030A700080072
:10014000B001A8080319A728B0080319A1280800BE
:100150003008B104B001B3080319B0282208B72849
:1001600000303119013831180238311A03380A3E8B
:100170001038DB20A8080319C1288F20B008031D00
:10018000A82808000508FF3A3539031DC228B00128
:100190000800A600AE14AE18CB2808002D080319DD
:1001A000DA28AE19DA282621031DD828AD01DA286D
:1001B000DB20AD0A08002E1DEE28AE19EE28AB009C
:1001C000AC00AC0E0F30AC05AB0500302B07262180
:1001D000AA008F00A9018E01AB01AE1508005030B6
:1001E00039078400800E01080E060F068006B90A42
:1001F0000F3039060319B9010800B80A0F30380664
:100200000319B801503038078400000808002F088F
:10021000FF3A3539831685008312CA3085050800F8
:10022000B701B600AF0107210800AE1C1929AF1BAA
:10023000252936083707B70A2621FF3A031D232947
:10024000B7011521FF3AFF3AAF00080083169B0063
:100250001C141A08831208008001840AFF3E031D43
:040260002C2908003D
:02400E00843FED
:104200000000F100F200F300F400F500F600F70002
:10421000F800F900FA00FB00FC00FD00FE00FF00C2
:10422000142116211A2120211F0000001F00100058
:104230001F0000001F0010001F0010001F000000E2
:104240001F0010001F0010001F0010001F000000C2
:104250001E0010001F0000004E004F004E004F00D7
:104260004E004F000000350010003100000000003B
:10427000FF002000040001001000FF00A000A400C7
:10428000A500B500FF0035000000FF00210014006C
:02429000FF002D
:00000001FF
