:020000040000FA
:100000002030840030304D28A0000308A100831266
:100010000B1C0B280B100C1C2528B01D24282B08AA
:100020008E002C088F00031D1828FF308F001E281B
:10003000050885181D2885141E288510AD0B242859
:10004000AE0B2428B01185100C100B1D4628A60BF2
:1000500045280730A60099215A21D221BA21B01C87
:100060003428A80B3428B010A70B45280530A7006A
:10007000B0184028AA0803194028AA0B40283016B7
:10008000A90B442800307B20E0210B1121088300BC
:1000900020080315211D03110900F7210430BB00BE
:1000A0008312073099008316043081000C148501F7
:1000B0003530960083128500053090000C106D20BD
:1000C000E8308B008C01B70803197F2030185028C6
:1000D00037188920B718CC2063280730A6000530D0
:1000E000A7003030A900AA01A801AF0101307B2090
:1000F0003010B0100800B700B801B30108008B122F
:1001000010103730DB215A218D21630030148D21EE
:100110000800B808031D91280130B8003930DB21F0
:10012000CB28B31EA828B50A043035060319B5013B
:100130003508BB000130BB07BB0DBB0D3E3035079A
:10014000F121B10010303507F121AF0008309421C2
:10015000331DB928B60A043036060319B6013E30FD
:100160003607F121B10010303607F121AF00083019
:100170009421331CC6288130B100301DC1283011B4
:10018000C42830152830AF0008309421331ECA2807
:1001900002307B20B3010800B808031DD6280130C7
:1001A000B8003730DB21BD013012FE28301AEA28B2
:1001B0003B083D060319E528083094210021092158
:1001C0003021AA080319EA28FE284330DB212C300D
:1001D000AF00FA283330AF000530A3008030B10003
:1001E000023094213208B10408309421A30BEE2888
:1001F0004630DB218030942100307B20B3010800A1
:10020000C821A30040303D07840023088000BD0AB8
:100210000800A4018030B10002309421403024074E
:1002200084000008A5003608A300A30AA201033039
:100230002505A204393EF121B104A50CA50CA30BA0
:10024000172922080A3E1038A621083094213030A0
:10025000A900A40A24083D06031D0A29B1010800CB
:10026000A4011030AA003030A900B20140302407A8
:1002700084000008A5003608A300A30AA2010330E9
:100280002505A204393EF121B204A50CA50CA30B4F
:100290003F29B4016B217321340835393206031D1F
:1002A000AA01AA0803195929A40A24083D06031D16
:1002B00031290800B0186A29353085048316850471
:1002C000950083120508FF3A3539B30403196A29EA
:1002D0003030A9000800B301AA0803197229B30835
:1002E00003196C2908003308B404B301B6080319D4
:1002F0007B29220882290030341901383418023849
:10030000341A03380A3E1038A621AA0803198C298A
:100310005A21B308031D732908000508FF3A35392F
:10032000031D8D29B3010800A800B014B018962948
:1003300008002F080319A529B019A529F121031DCB
:10034000A329AF01A529A621AF0A0800301DB929AC
:10035000B019B929AD00AE00AE0E0F30AE05AD0537
:1003600000302D07F121AC008F00AB018E01AD01F3
:10037000B015080050303F078400800E01080E06BB
:100380000F068006BF0A0F303F060319BF010800A1
:10039000BE0A0F303E060319BE0150303E078400EE
:1003A000000808003108FF3A3539831685008312AA
:1003B000CA3085050800BA01B900B101D221080090
:1003C000B01CE429B11BF02939083A07BA0AF12117
:1003D000FF3A031DEE29BA01E021FF3AFF3AB100CE
:1003E000080083169B001C141A0883120800800161
:0A03F000840AFF3E031DF7290800F0
:02400E00843FED
:104200000000F100F200F300F400F500F600F70002
:10421000F800F900FA00FB00FC00FD00FE00FF00C2
:10422000142116211A2120211F0000001F00100058
:104230001F0000001F0010001F0010001F000000E2
:104240001F0010001F0010001F0010001F000000C2
:104250001E0010001F0000004E004F004E004F00D7
:104260004E004F000000350010003100000000003B
:10427000FF002000040001001000FF00A000A400C7
:10428000A500B500FF0035000000FF00210014006C
:02429000FF002D
:00000001FF
