:020000040000FA
:100000002030840030304A28A0000308A100831269
:100010000B1C0B280B100C1C2528AE1D24282908AE
:100020008E002A088F00031D1828FF308F001E281D
:10003000050885181D2885141E288510AB0B24285B
:10004000AC0B2428AE1185100C100B1D4328A40BFB
:1000500042280730A400B3207420D420AE1C3328DB
:10006000A60B3328AE10A50B42280530A500AE180C
:100070003F28A80803193F28A80B3F282E16A70BD6
:100080004128E2200B112108830020080315211DBF
:1000900003110900F92083120730990083160430F8
:1000A00081000C14850135309600831285000530DF
:1000B00090000C106820E8308B008C012E15393030
:1000C000DD20B008031967282C30AD00B00161288D
:1000D0000730A4000530A5003030A700A801A60114
:1000E000AD012E10AE100800AE18842835308504FE
:1000F00083168504950083120508FF3A3539B0044C
:10010000031984283030A7000800B001A80803199B
:100110008C28B0080319862808003008B104B00103
:10012000B3080319952822089C280030311901389A
:1001300031180238311A03380A3E1038C020A80896
:100140000319A6287420B008031D8D28080005088F
:10015000FF3A3539031DA728B0010800A600AE14E8
:10016000AE18B02808002D080319BF28AE19BF2803
:10017000F320031DBD28AD01BF28C020AD0A080033
:100180002E1DD328AE19D328AB00AC00AC0E0F3017
:10019000AC05AB0500302B07F320AA008F00A901A6
:1001A0008E01AB01AE1508002F08FF3A35398316D2
:1001B00085008312CA3085050800B501B400AF017F
:1001C000D4200800AE1CE628AF1BF22834083507FF
:1001D000B50AF320FF3A031DF028B501E220FF3AEB
:1001E000FF3AAF00080083169B001C141A08831204
:0E01F00008008001840AFF3E031DF928080064
:02400E00843FED
:104200000000F100F200F300F400F500F600F70002
:10421000F800F900FA00FB00FC00FD00FE00FF00C2
:10422000142116211A2120211F0000001F00100058
:104230001F0000001F0010001F0010001F000000E2
:104240001F0010001F0010001F0010001F000000C2
:104250001E0010001F0000004E004F004E004F00D7
:104260004E004F000000350010003100000000003B
:10427000FF002000040001001000FF00A000A400C7
:10428000A500B500FF0035000000FF00210014006C
:02429000FF002D
:00000001FF
