:020000040000FA
:100000002030840030300528090045208312073055
:100010009900831685018312353085001D20A214B6
:10002000023029202E20202016201228A101A00114
:10003000A00B1828A10B172808002210A2100800F6
:100040002308FF3A3539831685008312CA308505A7
:100050000800A501A400A30120200800A21C32284A
:10006000A31B3E2824082507A50A3F20FF3A031DAD
:100070003C28A5012E20FF3AFF3AA3000800831672
:100080009B001C141A08831208008001840AFF3E9A
:06009000031D45280800D5
:02400E00043E6E
:104200000000FF002000040001001000FF00A000DB
:10421000A400A500B500FF0035000000FF0021004C
:044220001400FF0087
:00000001FF
