:020000040000FA
:100000002030840030304B28A0000308A100831268
:100010000B1C0B280B100C1C2528AE1D24282908AE
:100020008E002A088F00031D1828FF308F001E281D
:10003000050885181D2885141E288510AB0B24285B
:10004000AC0B2428AE1185100C100B1D4428A40BFA
:1000500043280730A400AF207020E820D020AE1C39
:100060003428A60B3428AE10A50B43280530A50074
:10007000AE184028A80803194028A80B40282E16BF
:10008000A70B4228F6200B11210883002008031536
:10009000211D031109000D218312073099008316D9
:1000A000043081000C1485013530960083128500E0
:1000B000053090000C106420E8308B008C01DE20AD
:1000C000AF000830AA205F280730A4000530A50043
:1000D0003030A700A801A601AD012E10AE10080017
:1000E000AE18802835308504831685049500831268
:1000F0000508FF3A3539B004031980283030A700CD
:100100000800B001A80803198828B008031982283C
:1001100008003008B104B001B3080319912822087F
:10012000982800303119013831180238311A033853
:100130000A3E1038BC20A8080319A2287020B00875
:10014000031D892808000508FF3A3539031DA32837
:10015000B0010800A600AE14AE18AC2808002D08A7
:100160000319BB28AE19BB280721031DB928AD010F
:10017000BB28BC20AD0A08002E1DCF28AE19CF2801
:10018000AB00AC00AC0E0F30AC05AB0500302B075C
:100190000721AA008F00A9018E01AB01AE1508004E
:1001A000503037078400800E01080E060F068006C7
:1001B000B70A0F3037060319B7010800B60A0F3027
:1001C00036060319B60150303607840000080800CF
:1001D0002F08FF3A3539831685008312CA3085050A
:1001E0000800B501B400AF01E8200800AE1CFA28F1
:1001F000AF1B062934083507B50A0721FF3A031D4E
:100200000429B501F620FF3AFF3AAF000800831633
:100210009B001C141A08831208008001840AFF3E08
:06022000031D0D2908007A
:02400E00843FED
:104200000000F100F200F300F400F500F600F70002
:10421000F800F900FA00FB00FC00FD00FE00FF00C2
:10422000142116211A2120211F0000001F00100058
:104230001F0000001F0010001F0010001F000000E2
:104240001F0010001F0010001F0010001F000000C2
:104250001E0010001F0000004E004F004E004F00D7
:104260004E004F000000350010003100000000003B
:10427000FF002000040001001000FF00A000A400C7
:10428000A500B500FF0035000000FF00210014006C
:02429000FF002D
:00000001FF
