:020000040000FA
:100000002030840030302928A0000308A10083128A
:100010000C1C2228A91D212824088E0025088F00E9
:10002000031D1528FF308F001B28050885181A2886
:1000300085141B288510A60B2128A70B2128A911A0
:1000400085100C102108830020080315211D0311C1
:100050000900962083120730990083160C1485013D
:10006000831235308500053090000C104C20C030D4
:100070008B008C01A91429152C30A80039307A2066
:100080007F205020712045204028A301A201A20B0F
:100090004728A30B46280800A8012910A91008002A
:1000A000280803195C28A9195C289020031D5A28E8
:1000B000A8015C285D20A80A0800291D7028A9193C
:1000C0007028A600A700A70E0F30A705A6050030D0
:1000D00026079020A5008F00A4018E01A601A91576
:1000E00008002A08FF3A3539831685008312CA3082
:1000F00085050800AC01AB00AA0171200800A91C0D
:100100008328AA1B8F282B082C07AC0A9020FF3AC3
:10011000031D8D28AC017F20FF3AFF3AAA0008009A
:1001200083169B001C141A08831208008001840A9D
:08013000FF3E031D96280800A4
:02400E00843FED
:104200000000F100F200F300F400F500F600F70002
:10421000F800F900FA00FB00FC00FD00FE00FF00C2
:10422000142116211A2120211F0000001F00100058
:104230001F0000001F0010001F0010001F000000E2
:104240001F0010001F0010001F0010001F000000C2
:104250001E0010001F0000004E004F004E004F00D7
:104260004E004F000000350010003100000000003B
:10427000FF002000040001001000FF00A000A400C7
:10428000A500B500FF0035000000FF00210014006C
:02429000FF002D
:00000001FF
