:020000040000FA
:100000002030840030304D28A0000308A100831266
:100010000B1C0B280B100C1C2528AE1D24282908AE
:100020008E002A088F00031D1828FF308F001E281D
:10003000050885181D2885141E288510AB0B24285B
:10004000AC0B2428AE1185100C100B1D4628A40BF8
:1000500045280730A4000B21CC2044212C21AE1CC4
:100060003428A60B3428AE10A50B45280530A50072
:10007000AE184028A80803194028A80B40282E16BF
:10008000A70B44280030792052210B11210883004E
:1000900020080315211D031109006921831207306F
:1000A00099008316043081000C14850135309600C8
:1000B00083128500053090000C106B20E8308B0017
:1000C0008C01B40803197D202E184E28341887207F
:1000D000B418CA2061280730A4000530A5003030CC
:1000E000A700A801A601AD01013079202E10AE10A5
:1000F0000800B400B501B00108008B1210103730B1
:100100004D21CC20FF2063002E14FF200800B508ED
:10011000031D8F280130B50039304D21C928B01E8C
:10012000A628B20A043032060319B2013208B80018
:100130000130B807B80DB80D3E3032076321AF006B
:10014000103032076321AD0008300621301DB7287A
:10015000B30A043033060319B3013E303307632179
:10016000AF00103033076321AD0008300621301C8A
:10017000C4288130AF002E1DBF282E11C2282E1595
:100180002830AD0008300621301EC8280230792002
:10019000B0010800B0010800AE18DC283530850435
:1001A00083168504950083120508FF3A3539B0049B
:1001B0000319DC283030A7000800B001A808031993
:1001C000E428B0080319DE2808003008B104B001A3
:1001D000B3080319ED282208F4280030311901383A
:1001E00031180238311A03380A3E10381821A8088D
:1001F0000319FE28CC20B008031DE52808000508D7
:10020000FF3A3539031DFF28B0010800A600AE14DF
:10021000AE18082908002D0803191729AE19172947
:100220006321031D1529AD0117291821AD0A080006
:100230002E1D2B29AE192B29AB00AC00AC0E0F30B4
:10024000AC05AB0500302B076321AA008F00A90184
:100250008E01AB01AE15080050303C078400800EC3
:1002600001080E060F068006BC0A0F303C06031973
:10027000BC010800BB0A0F303B060319BB0150301C
:100280003B078400000808002F08FF3A3539831621
:1002900085008312CA3085050800B701B600AF019A
:1002A00044210800AE1C5629AF1B622936083707C7
:1002B000B70A6321FF3A031D6029B7015221FF3AB3
:1002C000FF3AAF00080083169B001C141A08831223
:0E02D00008008001840AFF3E031D6929080012
:02400E00843FED
:104200000000F100F200F300F400F500F600F70002
:10421000F800F900FA00FB00FC00FD00FE00FF00C2
:10422000142116211A2120211F0000001F00100058
:104230001F0000001F0010001F0010001F000000E2
:104240001F0010001F0010001F0010001F000000C2
:104250001E0010001F0000004E004F004E004F00D7
:104260004E004F000000350010003100000000003B
:10427000FF002000040001001000FF00A000A400C7
:10428000A500B500FF0035000000FF00210014006C
:02429000FF002D
:00000001FF
